{
  "abi": [
    {
      "inputs": [],
      "stateMutability": "nonpayable",
      "type": "constructor"
    },
    {
      "anonymous": false,
      "inputs": [
        {
          "indexed": false,
          "internalType": "uint8",
          "name": "version",
          "type": "uint8"
        }
      ],
      "name": "Initialized",
      "type": "event"
    },
    {
      "anonymous": false,
      "inputs": [
        {
          "indexed": true,
          "internalType": "address",
          "name": "previousOwner",
          "type": "address"
        },
        {
          "indexed": true,
          "internalType": "address",
          "name": "newOwner",
          "type": "address"
        }
      ],
      "name": "OwnershipTransferred",
      "type": "event"
    },
    {
      "inputs": [],
      "name": "FRX_ETH_ADDRESS",
      "outputs": [
        {
          "internalType": "address",
          "name": "",
          "type": "address"
        }
      ],
      "stateMutability": "view",
      "type": "function"
    },
    {
      "inputs": [],
      "name": "FRX_ETH_CRV_POOL_ADDRESS",
      "outputs": [
        {
          "internalType": "address",
          "name": "",
          "type": "address"
        }
      ],
      "stateMutability": "view",
      "type": "function"
    },
    {
      "inputs": [],
      "name": "FRX_ETH_MINTER_ADDRESS",
      "outputs": [
        {
          "internalType": "address",
          "name": "",
          "type": "address"
        }
      ],
      "stateMutability": "view",
      "type": "function"
    },
    {
      "inputs": [],
      "name": "SFRX_ETH_ADDRESS",
      "outputs": [
        {
          "internalType": "address",
          "name": "",
          "type": "address"
        }
      ],
      "stateMutability": "view",
      "type": "function"
    },
    {
      "inputs": [],
      "name": "balance",
      "outputs": [
        {
          "internalType": "uint256",
          "name": "",
          "type": "uint256"
        }
      ],
      "stateMutability": "view",
      "type": "function"
    },
    {
      "inputs": [],
      "name": "deposit",
      "outputs": [
        {
          "internalType": "uint256",
          "name": "",
          "type": "uint256"
        }
      ],
      "stateMutability": "payable",
      "type": "function"
    },
    {
      "inputs": [
        {
          "internalType": "uint256",
          "name": "_amount",
          "type": "uint256"
        }
      ],
      "name": "ethPerDerivative",
      "outputs": [
        {
          "internalType": "uint256",
          "name": "",
          "type": "uint256"
        }
      ],
      "stateMutability": "view",
      "type": "function"
    },
    {
      "inputs": [
        {
          "internalType": "address",
          "name": "_owner",
          "type": "address"
        }
      ],
      "name": "initialize",
      "outputs": [],
      "stateMutability": "nonpayable",
      "type": "function"
    },
    {
      "inputs": [],
      "name": "maxSlippage",
      "outputs": [
        {
          "internalType": "uint256",
          "name": "",
          "type": "uint256"
        }
      ],
      "stateMutability": "view",
      "type": "function"
    },
    {
      "inputs": [],
      "name": "name",
      "outputs": [
        {
          "internalType": "string",
          "name": "",
          "type": "string"
        }
      ],
      "stateMutability": "pure",
      "type": "function"
    },
    {
      "inputs": [],
      "name": "owner",
      "outputs": [
        {
          "internalType": "address",
          "name": "",
          "type": "address"
        }
      ],
      "stateMutability": "view",
      "type": "function"
    },
    {
      "inputs": [],
      "name": "renounceOwnership",
      "outputs": [],
      "stateMutability": "nonpayable",
      "type": "function"
    },
    {
      "inputs": [
        {
          "internalType": "uint256",
          "name": "_slippage",
          "type": "uint256"
        }
      ],
      "name": "setMaxSlippage",
      "outputs": [],
      "stateMutability": "nonpayable",
      "type": "function"
    },
    {
      "inputs": [
        {
          "internalType": "address",
          "name": "newOwner",
          "type": "address"
        }
      ],
      "name": "transferOwnership",
      "outputs": [],
      "stateMutability": "nonpayable",
      "type": "function"
    },
    {
      "inputs": [
        {
          "internalType": "uint256",
          "name": "_amount",
          "type": "uint256"
        }
      ],
      "name": "withdraw",
      "outputs": [],
      "stateMutability": "nonpayable",
      "type": "function"
    },
    {
      "stateMutability": "payable",
      "type": "receive"
    }
  ],
  "bytecode": {
    "object": "0x608060405234801561001057600080fd5b5061001961001e565b6100de565b600054610100900460ff161561008a5760405162461bcd60e51b815260206004820152602760248201527f496e697469616c697a61626c653a20636f6e747261637420697320696e697469604482015266616c697a696e6760c81b606482015260840160405180910390fd5b60005460ff90811610156100dc576000805460ff191660ff9081179091556040519081527f7f26b83ff96e1f2b6a682f133852f6798a09c465da95921460cefb38474024989060200160405180910390a15b565b610d10806100ed6000396000f3fe6080604052600436106100ec5760003560e01c8063715018a61161008a578063c4d66de811610059578063c4d66de814610292578063d0e30db0146102b2578063e36e4e06146102ba578063f2fde38b146102e257600080fd5b8063715018a6146102345780638c04166f146102495780638da5cb5b1461025f578063b69ef8a81461027d57600080fd5b80632bd6de1d116100c65780632bd6de1d1461019c5780632e1a7d4d146101ca5780633025f3a1146101ec57806343f68a491461021457600080fd5b806306fdde03146100f8578063083a5525146101345780631450eb121461017457600080fd5b366100f357005b600080fd5b34801561010457600080fd5b50604080518082018252600481526308ce4c2f60e31b6020820152905161012b9190610ba7565b60405180910390f35b34801561014057600080fd5b5061015c73bafa44efe7901e04e39dad13167d089c559c113881565b6040516001600160a01b03909116815260200161012b565b34801561018057600080fd5b5061015c735e8422345238f34275888049021821e8e08caa1f81565b3480156101a857600080fd5b506101bc6101b7366004610bf5565b610302565b60405190815260200161012b565b3480156101d657600080fd5b506101ea6101e5366004610bf5565b61041d565b005b3480156101f857600080fd5b5061015c73ac3e018457b222d93114458476f3e3416abbe38f81565b34801561022057600080fd5b506101ea61022f366004610bf5565b610738565b34801561024057600080fd5b506101ea610745565b34801561025557600080fd5b506101bc60655481565b34801561026b57600080fd5b506033546001600160a01b031661015c565b34801561028957600080fd5b506101bc610759565b34801561029e57600080fd5b506101ea6102ad366004610c0e565b6107d4565b6101bc6108f2565b3480156102c657600080fd5b5061015c73a1f8a6807c402e4a15ef4eba36528a3fed24e57781565b3480156102ee57600080fd5b506101ea6102fd366004610c0e565b610a82565b6040516303d1689d60e11b8152670de0b6b3a76400006004820152600090819073ac3e018457b222d93114458476f3e3416abbe38f906307a2d13a90602401602060405180830381865afa15801561035e573d6000803e3d6000fd5b505050506040513d601f19601f820116820180604052508101906103829190610c37565b905073a1f8a6807c402e4a15ef4eba36528a3fed24e5776001600160a01b03166386fc88d36040518163ffffffff1660e01b8152600401602060405180830381865afa1580156103d6573d6000803e3d6000fd5b505050506040513d601f19601f820116820180604052508101906103fa9190610c37565b61040c82670de0b6b3a7640000610c66565b6104169190610c83565b9392505050565b610425610afb565b604051635d043b2960e11b8152600481018290523060248201819052604482015273ac3e018457b222d93114458476f3e3416abbe38f9063ba087652906064016020604051808303816000875af1158015610484573d6000803e3d6000fd5b505050506040513d601f19601f820116820180604052508101906104a89190610c37565b506040516370a0823160e01b8152306004820152600090735e8422345238f34275888049021821e8e08caa1f906370a0823190602401602060405180830381865afa1580156104fb573d6000803e3d6000fd5b505050506040513d601f19601f8201168201806040525081019061051f9190610c37565b60405163095ea7b360e01b815273a1f8a6807c402e4a15ef4eba36528a3fed24e577600482015260248101829052909150735e8422345238f34275888049021821e8e08caa1f9063095ea7b3906044016020604051808303816000875af115801561058e573d6000803e3d6000fd5b505050506040513d601f19601f820116820180604052508101906105b29190610ca5565b506000670de0b6b3a7640000606554670de0b6b3a76400006105d49190610cc7565b670de0b6b3a7640000856105e787610302565b6105f19190610c66565b6105fb9190610c83565b6106059190610c66565b61060f9190610c83565b604051630f7c084960e21b81526001600482015260006024820152604481018490526064810182905290915073a1f8a6807c402e4a15ef4eba36528a3fed24e57790633df02124906084016020604051808303816000875af1158015610679573d6000803e3d6000fd5b505050506040513d601f19601f8201168201806040525081019061069d9190610c37565b50604051600090339047908381818185875af1925050503d80600081146106e0576040519150601f19603f3d011682016040523d82523d6000602084013e6106e5565b606091505b50509050806107325760405162461bcd60e51b81526020600482015260146024820152732330b4b632b2103a379039b2b7321022ba3432b960611b60448201526064015b60405180910390fd5b50505050565b610740610afb565b606555565b61074d610afb565b6107576000610b55565b565b6040516370a0823160e01b815230600482015260009073ac3e018457b222d93114458476f3e3416abbe38f906370a0823190602401602060405180830381865afa1580156107ab573d6000803e3d6000fd5b505050506040513d601f19601f820116820180604052508101906107cf9190610c37565b905090565b600054610100900460ff16158080156107f45750600054600160ff909116105b8061080e5750303b15801561080e575060005460ff166001145b6108715760405162461bcd60e51b815260206004820152602e60248201527f496e697469616c697a61626c653a20636f6e747261637420697320616c72656160448201526d191e481a5b9a5d1a585b1a5e995960921b6064820152608401610729565b6000805460ff191660011790558015610894576000805461ff0019166101001790555b61089d82610b55565b662386f26fc1000060655580156108ee576000805461ff0019169055604051600181527f7f26b83ff96e1f2b6a682f133852f6798a09c465da95921460cefb38474024989060200160405180910390a15b5050565b60006108fc610afb565b6040516370a0823160e01b815230600482015273bafa44efe7901e04e39dad13167d089c559c11389060009073ac3e018457b222d93114458476f3e3416abbe38f906370a0823190602401602060405180830381865afa158015610964573d6000803e3d6000fd5b505050506040513d601f19601f820116820180604052508101906109889190610c37565b604051634dcd454760e01b81523060048201529091506001600160a01b03831690634dcd454790349060240160206040518083038185885af11580156109d2573d6000803e3d6000fd5b50505050506040513d601f19601f820116820180604052508101906109f79190610c37565b506040516370a0823160e01b815230600482015260009073ac3e018457b222d93114458476f3e3416abbe38f906370a0823190602401602060405180830381865afa158015610a4a573d6000803e3d6000fd5b505050506040513d601f19601f82011682018060405250810190610a6e9190610c37565b9050610a7a8282610cc7565b935050505090565b610a8a610afb565b6001600160a01b038116610aef5760405162461bcd60e51b815260206004820152602660248201527f4f776e61626c653a206e6577206f776e657220697320746865207a65726f206160448201526564647265737360d01b6064820152608401610729565b610af881610b55565b50565b6033546001600160a01b031633146107575760405162461bcd60e51b815260206004820181905260248201527f4f776e61626c653a2063616c6c6572206973206e6f7420746865206f776e65726044820152606401610729565b603380546001600160a01b038381166001600160a01b0319831681179093556040519116919082907f8be0079c531659141344cd1fd0a4f28419497f9722a3daafe3b4186f6b6457e090600090a35050565b600060208083528351808285015260005b81811015610bd457858101830151858201604001528201610bb8565b506000604082860101526040601f19601f8301168501019250505092915050565b600060208284031215610c0757600080fd5b5035919050565b600060208284031215610c2057600080fd5b81356001600160a01b038116811461041657600080fd5b600060208284031215610c4957600080fd5b5051919050565b634e487b7160e01b600052601160045260246000fd5b8082028115828204841417610c7d57610c7d610c50565b92915050565b600082610ca057634e487b7160e01b600052601260045260246000fd5b500490565b600060208284031215610cb757600080fd5b8151801515811461041657600080fd5b81810381811115610c7d57610c7d610c5056fea26469706673582212205f1e1ca12f8251c638aa370df6fbc7606edc4bf9caad7ac7190c8ee746d79bd164736f6c63430008110033",
    "linkReferences": {}
  },
  "methodIdentifiers": {
    "FRX_ETH_ADDRESS()": "1450eb12",
    "FRX_ETH_CRV_POOL_ADDRESS()": "e36e4e06",
    "FRX_ETH_MINTER_ADDRESS()": "083a5525",
    "SFRX_ETH_ADDRESS()": "3025f3a1",
    "balance()": "b69ef8a8",
    "deposit()": "d0e30db0",
    "ethPerDerivative(uint256)": "2bd6de1d",
    "initialize(address)": "c4d66de8",
    "maxSlippage()": "8c04166f",
    "name()": "06fdde03",
    "owner()": "8da5cb5b",
    "renounceOwnership()": "715018a6",
    "setMaxSlippage(uint256)": "43f68a49",
    "transferOwnership(address)": "f2fde38b",
    "withdraw(uint256)": "2e1a7d4d"
  },
  "id": 4
}