{
  "abi": [
    {
      "inputs": [],
      "stateMutability": "nonpayable",
      "type": "constructor"
    },
    {
      "anonymous": false,
      "inputs": [
        {
          "indexed": false,
          "internalType": "uint8",
          "name": "version",
          "type": "uint8"
        }
      ],
      "name": "Initialized",
      "type": "event"
    },
    {
      "anonymous": false,
      "inputs": [
        {
          "indexed": true,
          "internalType": "address",
          "name": "previousOwner",
          "type": "address"
        },
        {
          "indexed": true,
          "internalType": "address",
          "name": "newOwner",
          "type": "address"
        }
      ],
      "name": "OwnershipTransferred",
      "type": "event"
    },
    {
      "inputs": [],
      "name": "LIDO_CRV_POOL",
      "outputs": [
        {
          "internalType": "address",
          "name": "",
          "type": "address"
        }
      ],
      "stateMutability": "view",
      "type": "function"
    },
    {
      "inputs": [],
      "name": "STETH_TOKEN",
      "outputs": [
        {
          "internalType": "address",
          "name": "",
          "type": "address"
        }
      ],
      "stateMutability": "view",
      "type": "function"
    },
    {
      "inputs": [],
      "name": "WST_ETH",
      "outputs": [
        {
          "internalType": "address",
          "name": "",
          "type": "address"
        }
      ],
      "stateMutability": "view",
      "type": "function"
    },
    {
      "inputs": [],
      "name": "balance",
      "outputs": [
        {
          "internalType": "uint256",
          "name": "",
          "type": "uint256"
        }
      ],
      "stateMutability": "view",
      "type": "function"
    },
    {
      "inputs": [],
      "name": "deposit",
      "outputs": [
        {
          "internalType": "uint256",
          "name": "",
          "type": "uint256"
        }
      ],
      "stateMutability": "payable",
      "type": "function"
    },
    {
      "inputs": [
        {
          "internalType": "uint256",
          "name": "_amount",
          "type": "uint256"
        }
      ],
      "name": "ethPerDerivative",
      "outputs": [
        {
          "internalType": "uint256",
          "name": "",
          "type": "uint256"
        }
      ],
      "stateMutability": "view",
      "type": "function"
    },
    {
      "inputs": [
        {
          "internalType": "address",
          "name": "_owner",
          "type": "address"
        }
      ],
      "name": "initialize",
      "outputs": [],
      "stateMutability": "nonpayable",
      "type": "function"
    },
    {
      "inputs": [],
      "name": "maxSlippage",
      "outputs": [
        {
          "internalType": "uint256",
          "name": "",
          "type": "uint256"
        }
      ],
      "stateMutability": "view",
      "type": "function"
    },
    {
      "inputs": [],
      "name": "name",
      "outputs": [
        {
          "internalType": "string",
          "name": "",
          "type": "string"
        }
      ],
      "stateMutability": "pure",
      "type": "function"
    },
    {
      "inputs": [],
      "name": "owner",
      "outputs": [
        {
          "internalType": "address",
          "name": "",
          "type": "address"
        }
      ],
      "stateMutability": "view",
      "type": "function"
    },
    {
      "inputs": [],
      "name": "renounceOwnership",
      "outputs": [],
      "stateMutability": "nonpayable",
      "type": "function"
    },
    {
      "inputs": [
        {
          "internalType": "uint256",
          "name": "_slippage",
          "type": "uint256"
        }
      ],
      "name": "setMaxSlippage",
      "outputs": [],
      "stateMutability": "nonpayable",
      "type": "function"
    },
    {
      "inputs": [
        {
          "internalType": "address",
          "name": "newOwner",
          "type": "address"
        }
      ],
      "name": "transferOwnership",
      "outputs": [],
      "stateMutability": "nonpayable",
      "type": "function"
    },
    {
      "inputs": [
        {
          "internalType": "uint256",
          "name": "_amount",
          "type": "uint256"
        }
      ],
      "name": "withdraw",
      "outputs": [],
      "stateMutability": "nonpayable",
      "type": "function"
    },
    {
      "stateMutability": "payable",
      "type": "receive"
    }
  ],
  "bytecode": {
    "object": "0x608060405234801561001057600080fd5b5061001961001e565b6100de565b600054610100900460ff161561008a5760405162461bcd60e51b815260206004820152602760248201527f496e697469616c697a61626c653a20636f6e747261637420697320696e697469604482015266616c697a696e6760c81b606482015260840160405180910390fd5b60005460ff90811610156100dc576000805460ff191660ff9081179091556040519081527f7f26b83ff96e1f2b6a682f133852f6798a09c465da95921460cefb38474024989060200160405180910390a15b565b610c36806100ed6000396000f3fe6080604052600436106100e15760003560e01c80638c04166f1161007f578063bc4a8bc611610059578063bc4a8bc61461025f578063c4d66de814610287578063d0e30db0146102a7578063f2fde38b146102af57600080fd5b80638c04166f146102165780638da5cb5b1461022c578063b69ef8a81461024a57600080fd5b806343f68a49116100bb57806343f68a49146101795780635334e8a8146101995780635664cb48146101d9578063715018a61461020157600080fd5b806306fdde03146100ed5780632bd6de1d146101295780632e1a7d4d1461015757600080fd5b366100e857005b600080fd5b3480156100f957600080fd5b5060408051808201825260048152634c69646f60e01b602082015290516101209190610acc565b60405180910390f35b34801561013557600080fd5b50610149610144366004610b1a565b6102cf565b604051908152602001610120565b34801561016357600080fd5b50610177610172366004610b1a565b610353565b005b34801561018557600080fd5b50610177610194366004610b1a565b61063a565b3480156101a557600080fd5b506101c173dc24316b9ae028f1497c275eb9192a3ea0f6702281565b6040516001600160a01b039091168152602001610120565b3480156101e557600080fd5b506101c1737f39c581f595b53c5cb19bd0b3f8da6c935e2ca081565b34801561020d57600080fd5b50610177610647565b34801561022257600080fd5b5061014960655481565b34801561023857600080fd5b506033546001600160a01b03166101c1565b34801561025657600080fd5b5061014961065b565b34801561026b57600080fd5b506101c173ae7ab96520de3a18e5e111b5eaab095312d7fe8481565b34801561029357600080fd5b506101776102a2366004610b33565b6106d6565b6101496107f4565b3480156102bb57600080fd5b506101776102ca366004610b33565b6109a7565b604051632eca54bf60e21b8152670de0b6b3a76400006004820152600090737f39c581f595b53c5cb19bd0b3f8da6c935e2ca09063bb2952fc90602401602060405180830381865afa158015610329573d6000803e3d6000fd5b505050506040513d601f19601f8201168201806040525081019061034d9190610b63565b92915050565b61035b610a20565b604051636f074d1f60e11b815260048101829052737f39c581f595b53c5cb19bd0b3f8da6c935e2ca09063de0e9a3e906024016020604051808303816000875af11580156103ad573d6000803e3d6000fd5b505050506040513d601f19601f820116820180604052508101906103d19190610b63565b506040516370a0823160e01b815230600482015260009073ae7ab96520de3a18e5e111b5eaab095312d7fe84906370a0823190602401602060405180830381865afa158015610424573d6000803e3d6000fd5b505050506040513d601f19601f820116820180604052508101906104489190610b63565b60405163095ea7b360e01b815273dc24316b9ae028f1497c275eb9192a3ea0f6702260048201526024810182905290915073ae7ab96520de3a18e5e111b5eaab095312d7fe849063095ea7b3906044016020604051808303816000875af11580156104b7573d6000803e3d6000fd5b505050506040513d601f19601f820116820180604052508101906104db9190610b7c565b506000670de0b6b3a7640000606554670de0b6b3a76400006104fd9190610bb4565b6105079084610bc7565b6105119190610bde565b604051630f7c084960e21b81526001600482015260006024820152604481018490526064810182905290915073dc24316b9ae028f1497c275eb9192a3ea0f6702290633df02124906084016020604051808303816000875af115801561057b573d6000803e3d6000fd5b505050506040513d601f19601f8201168201806040525081019061059f9190610b63565b50604051600090339047908381818185875af1925050503d80600081146105e2576040519150601f19603f3d011682016040523d82523d6000602084013e6105e7565b606091505b50509050806106345760405162461bcd60e51b81526020600482015260146024820152732330b4b632b2103a379039b2b7321022ba3432b960611b60448201526064015b60405180910390fd5b50505050565b610642610a20565b606555565b61064f610a20565b6106596000610a7a565b565b6040516370a0823160e01b8152306004820152600090737f39c581f595b53c5cb19bd0b3f8da6c935e2ca0906370a0823190602401602060405180830381865afa1580156106ad573d6000803e3d6000fd5b505050506040513d601f19601f820116820180604052508101906106d19190610b63565b905090565b600054610100900460ff16158080156106f65750600054600160ff909116105b806107105750303b158015610710575060005460ff166001145b6107735760405162461bcd60e51b815260206004820152602e60248201527f496e697469616c697a61626c653a20636f6e747261637420697320616c72656160448201526d191e481a5b9a5d1a585b1a5e995960921b606482015260840161062b565b6000805460ff191660011790558015610796576000805461ff0019166101001790555b61079f82610a7a565b662386f26fc1000060655580156107f0576000805461ff0019169055604051600181527f7f26b83ff96e1f2b6a682f133852f6798a09c465da95921460cefb38474024989060200160405180910390a15b5050565b60006107fe610a20565b6040516370a0823160e01b8152306004820152600090737f39c581f595b53c5cb19bd0b3f8da6c935e2ca0906370a0823190602401602060405180830381865afa158015610850573d6000803e3d6000fd5b505050506040513d601f19601f820116820180604052508101906108749190610b63565b604051909150600090737f39c581f595b53c5cb19bd0b3f8da6c935e2ca09034908381818185875af1925050503d80600081146108cd576040519150601f19603f3d011682016040523d82523d6000602084013e6108d2565b606091505b505090508061091a5760405162461bcd60e51b81526020600482015260146024820152732330b4b632b2103a379039b2b7321022ba3432b960611b604482015260640161062b565b6040516370a0823160e01b8152306004820152600090737f39c581f595b53c5cb19bd0b3f8da6c935e2ca0906370a0823190602401602060405180830381865afa15801561096c573d6000803e3d6000fd5b505050506040513d601f19601f820116820180604052508101906109909190610b63565b9050600061099e8483610bb4565b94505050505090565b6109af610a20565b6001600160a01b038116610a145760405162461bcd60e51b815260206004820152602660248201527f4f776e61626c653a206e6577206f776e657220697320746865207a65726f206160448201526564647265737360d01b606482015260840161062b565b610a1d81610a7a565b50565b6033546001600160a01b031633146106595760405162461bcd60e51b815260206004820181905260248201527f4f776e61626c653a2063616c6c6572206973206e6f7420746865206f776e6572604482015260640161062b565b603380546001600160a01b038381166001600160a01b0319831681179093556040519116919082907f8be0079c531659141344cd1fd0a4f28419497f9722a3daafe3b4186f6b6457e090600090a35050565b600060208083528351808285015260005b81811015610af957858101830151858201604001528201610add565b506000604082860101526040601f19601f8301168501019250505092915050565b600060208284031215610b2c57600080fd5b5035919050565b600060208284031215610b4557600080fd5b81356001600160a01b0381168114610b5c57600080fd5b9392505050565b600060208284031215610b7557600080fd5b5051919050565b600060208284031215610b8e57600080fd5b81518015158114610b5c57600080fd5b634e487b7160e01b600052601160045260246000fd5b8181038181111561034d5761034d610b9e565b808202811582820484141761034d5761034d610b9e565b600082610bfb57634e487b7160e01b600052601260045260246000fd5b50049056fea26469706673582212203fc130ec7e997d41d4b971b4892562e9c6c25e84e2482b86b48723d040d9b7ba64736f6c63430008110033",
    "linkReferences": {}
  },
  "methodIdentifiers": {
    "LIDO_CRV_POOL()": "5334e8a8",
    "STETH_TOKEN()": "bc4a8bc6",
    "WST_ETH()": "5664cb48",
    "balance()": "b69ef8a8",
    "deposit()": "d0e30db0",
    "ethPerDerivative(uint256)": "2bd6de1d",
    "initialize(address)": "c4d66de8",
    "maxSlippage()": "8c04166f",
    "name()": "06fdde03",
    "owner()": "8da5cb5b",
    "renounceOwnership()": "715018a6",
    "setMaxSlippage(uint256)": "43f68a49",
    "transferOwnership(address)": "f2fde38b",
    "withdraw(uint256)": "2e1a7d4d"
  },
  "id": 5
}