{
  "abi": [
    {
      "inputs": [],
      "stateMutability": "nonpayable",
      "type": "constructor"
    },
    {
      "anonymous": false,
      "inputs": [
        {
          "indexed": false,
          "internalType": "uint8",
          "name": "version",
          "type": "uint8"
        }
      ],
      "name": "Initialized",
      "type": "event"
    },
    {
      "anonymous": false,
      "inputs": [
        {
          "indexed": true,
          "internalType": "address",
          "name": "previousOwner",
          "type": "address"
        },
        {
          "indexed": true,
          "internalType": "address",
          "name": "newOwner",
          "type": "address"
        }
      ],
      "name": "OwnershipTransferred",
      "type": "event"
    },
    {
      "inputs": [],
      "name": "ROCKET_STORAGE_ADDRESS",
      "outputs": [
        {
          "internalType": "address",
          "name": "",
          "type": "address"
        }
      ],
      "stateMutability": "view",
      "type": "function"
    },
    {
      "inputs": [],
      "name": "UNISWAP_ROUTER",
      "outputs": [
        {
          "internalType": "address",
          "name": "",
          "type": "address"
        }
      ],
      "stateMutability": "view",
      "type": "function"
    },
    {
      "inputs": [],
      "name": "UNI_V3_FACTORY",
      "outputs": [
        {
          "internalType": "address",
          "name": "",
          "type": "address"
        }
      ],
      "stateMutability": "view",
      "type": "function"
    },
    {
      "inputs": [],
      "name": "W_ETH_ADDRESS",
      "outputs": [
        {
          "internalType": "address",
          "name": "",
          "type": "address"
        }
      ],
      "stateMutability": "view",
      "type": "function"
    },
    {
      "inputs": [],
      "name": "balance",
      "outputs": [
        {
          "internalType": "uint256",
          "name": "",
          "type": "uint256"
        }
      ],
      "stateMutability": "view",
      "type": "function"
    },
    {
      "inputs": [],
      "name": "deposit",
      "outputs": [
        {
          "internalType": "uint256",
          "name": "",
          "type": "uint256"
        }
      ],
      "stateMutability": "payable",
      "type": "function"
    },
    {
      "inputs": [
        {
          "internalType": "uint256",
          "name": "_amount",
          "type": "uint256"
        }
      ],
      "name": "ethPerDerivative",
      "outputs": [
        {
          "internalType": "uint256",
          "name": "",
          "type": "uint256"
        }
      ],
      "stateMutability": "view",
      "type": "function"
    },
    {
      "inputs": [
        {
          "internalType": "address",
          "name": "_owner",
          "type": "address"
        }
      ],
      "name": "initialize",
      "outputs": [],
      "stateMutability": "nonpayable",
      "type": "function"
    },
    {
      "inputs": [],
      "name": "maxSlippage",
      "outputs": [
        {
          "internalType": "uint256",
          "name": "",
          "type": "uint256"
        }
      ],
      "stateMutability": "view",
      "type": "function"
    },
    {
      "inputs": [],
      "name": "name",
      "outputs": [
        {
          "internalType": "string",
          "name": "",
          "type": "string"
        }
      ],
      "stateMutability": "pure",
      "type": "function"
    },
    {
      "inputs": [],
      "name": "owner",
      "outputs": [
        {
          "internalType": "address",
          "name": "",
          "type": "address"
        }
      ],
      "stateMutability": "view",
      "type": "function"
    },
    {
      "inputs": [],
      "name": "renounceOwnership",
      "outputs": [],
      "stateMutability": "nonpayable",
      "type": "function"
    },
    {
      "inputs": [
        {
          "internalType": "uint256",
          "name": "_slippage",
          "type": "uint256"
        }
      ],
      "name": "setMaxSlippage",
      "outputs": [],
      "stateMutability": "nonpayable",
      "type": "function"
    },
    {
      "inputs": [
        {
          "internalType": "address",
          "name": "newOwner",
          "type": "address"
        }
      ],
      "name": "transferOwnership",
      "outputs": [],
      "stateMutability": "nonpayable",
      "type": "function"
    },
    {
      "inputs": [
        {
          "internalType": "uint256",
          "name": "amount",
          "type": "uint256"
        }
      ],
      "name": "withdraw",
      "outputs": [],
      "stateMutability": "nonpayable",
      "type": "function"
    },
    {
      "stateMutability": "payable",
      "type": "receive"
    }
  ],
  "bytecode": {
    "object": "0x608060405234801561001057600080fd5b5061001961001e565b6100de565b600054610100900460ff161561008a5760405162461bcd60e51b815260206004820152602760248201527f496e697469616c697a61626c653a20636f6e747261637420697320696e697469604482015266616c697a696e6760c81b606482015260840160405180910390fd5b60005460ff90811610156100dc576000805460ff191660ff9081179091556040519081527f7f26b83ff96e1f2b6a682f133852f6798a09c465da95921460cefb38474024989060200160405180910390a15b565b61158e806100ed6000396000f3fe6080604052600436106100ec5760003560e01c8063715018a61161008a578063c4d66de811610059578063c4d66de814610298578063d0e30db0146102b8578063d8264920146102c0578063f2fde38b146102e857600080fd5b8063715018a61461023a5780638c04166f1461024f5780638da5cb5b14610265578063b69ef8a81461028357600080fd5b80632e1a7d4d116100c65780632e1a7d4d146101a85780632f2eec37146101ca5780633fe7a172146101f257806343f68a491461021a57600080fd5b806306fdde03146100f8578063188e47021461013a5780632bd6de1d1461017a57600080fd5b366100f357005b600080fd5b34801561010457600080fd5b50604080518082018252600a815269149bd8dad95d141bdbdb60b21b6020820152905161013191906112cc565b60405180910390f35b34801561014657600080fd5b50610162731d8f8f00cfa6758d7be78336684788fb0ee0fa4681565b6040516001600160a01b039091168152602001610131565b34801561018657600080fd5b5061019a61019536600461131a565b610308565b604051908152602001610131565b3480156101b457600080fd5b506101c86101c336600461131a565b6103ca565b005b3480156101d657600080fd5b50610162731f98431c8ad98523631ae4a59f267346ea31f98481565b3480156101fe57600080fd5b5061016273c02aaa39b223fe8d0a0e5c4f27ead9083c756cc281565b34801561022657600080fd5b506101c861023536600461131a565b6104d1565b34801561024657600080fd5b506101c86104de565b34801561025b57600080fd5b5061019a60655481565b34801561027157600080fd5b506033546001600160a01b0316610162565b34801561028f57600080fd5b5061019a6104f2565b3480156102a457600080fd5b506101c86102b3366004611348565b61056b565b61019a610688565b3480156102cc57600080fd5b506101627368b3465833fb72a70ecdf485e0e4c7bd8665fc4581565b3480156102f457600080fd5b506101c8610303366004611348565b610aa3565b600061031382610b1c565b1561039857610320610df3565b604051638b32fa2360e01b8152670de0b6b3a764000060048201526001600160a01b039190911690638b32fa2390602401602060405180830381865afa15801561036e573d6000803e3d6000fd5b505050506040513d601f19601f82011682018060405250810190610392919061136c565b92915050565b670de0b6b3a76400006103a9610e9c565b6103bb90670de0b6b3a764000061139b565b61039291906113b2565b919050565b6103d2611097565b6103da610df3565b6001600160a01b03166342966c68826040518263ffffffff1660e01b815260040161040791815260200190565b600060405180830381600087803b15801561042157600080fd5b505af1158015610435573d6000803e3d6000fd5b50506040516000925033915047908381818185875af1925050503d806000811461047b576040519150601f19603f3d011682016040523d82523d6000602084013e610480565b606091505b50509050806104cd5760405162461bcd60e51b81526020600482015260146024820152732330b4b632b2103a379039b2b7321022ba3432b960611b60448201526064015b60405180910390fd5b5050565b6104d9611097565b606555565b6104e6611097565b6104f060006110f1565b565b60006104fc610df3565b6040516370a0823160e01b81523060048201526001600160a01b0391909116906370a0823190602401602060405180830381865afa158015610542573d6000803e3d6000fd5b505050506040513d601f19601f82011682018060405250810190610566919061136c565b905090565b600054610100900460ff161580801561058b5750600054600160ff909116105b806105a55750303b1580156105a5575060005460ff166001145b6106085760405162461bcd60e51b815260206004820152602e60248201527f496e697469616c697a61626c653a20636f6e747261637420697320616c72656160448201526d191e481a5b9a5d1a585b1a5e995960921b60648201526084016104c4565b6000805460ff19166001179055801561062b576000805461ff0019166101001790555b610634826110f1565b662386f26fc1000060655580156104cd576000805461ff0019169055604051600181527f7f26b83ff96e1f2b6a682f133852f6798a09c465da95921460cefb38474024989060200160405180910390a15050565b6000610692611097565b6000731d8f8f00cfa6758d7be78336684788fb0ee0fa466001600160a01b03166321f8a7216040516020016106c6906113d4565b604051602081830303815290604052805190602001206040518263ffffffff1660e01b81526004016106fa91815260200190565b602060405180830381865afa158015610717573d6000803e3d6000fd5b505050506040513d601f19601f8201168201806040525081019061073b919061140a565b90508061074734610b1c565b610865576000610755610e9c565b61076e906ec097ce7bc90715b34b9f10000000006113b2565b90506000670de0b6b3a7640000606554670de0b6b3a76400006107919190611427565b670de0b6b3a76400006107a4348661139b565b6107ae91906113b2565b6107b8919061139b565b6107c291906113b2565b905073c02aaa39b223fe8d0a0e5c4f27ead9083c756cc26001600160a01b031663d0e30db0346040518263ffffffff1660e01b81526004016000604051808303818588803b15801561081357600080fd5b505af1158015610827573d6000803e3d6000fd5b5050505050600061085873c02aaa39b223fe8d0a0e5c4f27ead9083c756cc261084e610df3565b6101f43486611143565b9550610aa0945050505050565b6000731d8f8f00cfa6758d7be78336684788fb0ee0fa466001600160a01b03166321f8a7216040516020016108999061143a565b604051602081830303815290604052805190602001206040518263ffffffff1660e01b81526004016108cd91815260200190565b602060405180830381865afa1580156108ea573d6000803e3d6000fd5b505050506040513d601f19601f8201168201806040525081019061090e919061140a565b6040516370a0823160e01b815230600482015290915081906000906001600160a01b038316906370a0823190602401602060405180830381865afa15801561095a573d6000803e3d6000fd5b505050506040513d601f19601f8201168201806040525081019061097e919061136c565b9050836001600160a01b031663d0e30db0346040518263ffffffff1660e01b81526004016000604051808303818588803b1580156109bb57600080fd5b505af11580156109cf573d6000803e3d6000fd5b50506040516370a0823160e01b8152306004820152600093506001600160a01b03861692506370a082319150602401602060405180830381865afa158015610a1b573d6000803e3d6000fd5b505050506040513d601f19601f82011682018060405250810190610a3f919061136c565b9050818111610a855760405162461bcd60e51b8152602060048201526012602482015271139bc81c915512081dd85cc81b5a5b9d195960721b60448201526064016104c4565b6000610a918383611427565b9750610aa09650505050505050565b90565b610aab611097565b6001600160a01b038116610b105760405162461bcd60e51b815260206004820152602660248201527f4f776e61626c653a206e6577206f776e657220697320746865207a65726f206160448201526564647265737360d01b60648201526084016104c4565b610b19816110f1565b50565b600080731d8f8f00cfa6758d7be78336684788fb0ee0fa466001600160a01b03166321f8a721604051602001610b51906113d4565b604051602081830303815290604052805190602001206040518263ffffffff1660e01b8152600401610b8591815260200190565b602060405180830381865afa158015610ba2573d6000803e3d6000fd5b505050506040513d601f19601f82011682018060405250810190610bc6919061140a565b6040516f636f6e74726163742e6164647265737360801b60208201527f726f636b657444414f50726f746f636f6c53657474696e67734465706f73697460308201529091508190600090731d8f8f00cfa6758d7be78336684788fb0ee0fa46906321f8a72190605001604051602081830303815290604052805190602001206040518263ffffffff1660e01b8152600401610c6391815260200190565b602060405180830381865afa158015610c80573d6000803e3d6000fd5b505050506040513d601f19601f82011682018060405250810190610ca4919061140a565b90506000819050806001600160a01b031663fd6ce89e6040518163ffffffff1660e01b8152600401602060405180830381865afa158015610ce9573d6000803e3d6000fd5b505050506040513d601f19601f82011682018060405250810190610d0d919061136c565b86846001600160a01b03166312065fe06040518163ffffffff1660e01b8152600401602060405180830381865afa158015610d4c573d6000803e3d6000fd5b505050506040513d601f19601f82011682018060405250810190610d70919061136c565b610d7a919061146e565b11158015610de95750806001600160a01b031663035cf1426040518163ffffffff1660e01b8152600401602060405180830381865afa158015610dc1573d6000803e3d6000fd5b505050506040513d601f19601f82011682018060405250810190610de5919061136c565b8610155b9695505050505050565b6000731d8f8f00cfa6758d7be78336684788fb0ee0fa466001600160a01b03166321f8a721604051602001610e279061143a565b604051602081830303815290604052805190602001206040518263ffffffff1660e01b8152600401610e5b91815260200190565b602060405180830381865afa158015610e78573d6000803e3d6000fd5b505050506040513d601f19601f82011682018060405250810190610566919061140a565b600080731d8f8f00cfa6758d7be78336684788fb0ee0fa466001600160a01b03166321f8a721604051602001610ed19061143a565b604051602081830303815290604052805190602001206040518263ffffffff1660e01b8152600401610f0591815260200190565b602060405180830381865afa158015610f22573d6000803e3d6000fd5b505050506040513d601f19601f82011682018060405250810190610f46919061140a565b604051630b4c774160e11b81526001600160a01b038216600482015273c02aaa39b223fe8d0a0e5c4f27ead9083c756cc260248201526101f46044820152909150731f98431c8ad98523631ae4a59f267346ea31f984906000908290631698ee8290606401602060405180830381865afa158015610fc8573d6000803e3d6000fd5b505050506040513d601f19601f82011682018060405250810190610fec919061140a565b90506000816001600160a01b0316633850c7bd6040518163ffffffff1660e01b815260040160e060405180830381865afa15801561102e573d6000803e3d6000fd5b505050506040513d601f19601f8201168201806040525081019061105291906114a3565b505050505050905060c0816001600160a01b0316826001600160a01b031661107a919061139b565b61108c90670de0b6b3a764000061139b565b901c94505050505090565b6033546001600160a01b031633146104f05760405162461bcd60e51b815260206004820181905260248201527f4f776e61626c653a2063616c6c6572206973206e6f7420746865206f776e657260448201526064016104c4565b603380546001600160a01b038381166001600160a01b0319831681179093556040519116919082907f8be0079c531659141344cd1fd0a4f28419497f9722a3daafe3b4186f6b6457e090600090a35050565b60405163095ea7b360e01b81527368b3465833fb72a70ecdf485e0e4c7bd8665fc456004820152602481018390526000906001600160a01b0387169063095ea7b3906044016020604051808303816000875af11580156111a7573d6000803e3d6000fd5b505050506040513d601f19601f820116820180604052508101906111cb919061153d565b506040805160e0810182526001600160a01b0388811682528781166020830190815262ffffff8881168486019081523060608601908152608086018a815260a087018a8152600060c0890190815298516304e45aaf60e01b8152885188166004820152955187166024870152925190931660448501525184166064840152905160848301525160a482015292511660c4830152907368b3465833fb72a70ecdf485e0e4c7bd8665fc45906304e45aaf9060e4016020604051808303816000875af115801561129d573d6000803e3d6000fd5b505050506040513d601f19601f820116820180604052508101906112c1919061136c565b979650505050505050565b600060208083528351808285015260005b818110156112f9578581018301518582016040015282016112dd565b506000604082860101526040601f19601f8301168501019250505092915050565b60006020828403121561132c57600080fd5b5035919050565b6001600160a01b0381168114610b1957600080fd5b60006020828403121561135a57600080fd5b813561136581611333565b9392505050565b60006020828403121561137e57600080fd5b5051919050565b634e487b7160e01b600052601160045260246000fd5b808202811582820484141761039257610392611385565b6000826113cf57634e487b7160e01b600052601260045260246000fd5b500490565b6f636f6e74726163742e6164647265737360801b8152701c9bd8dad95d11195c1bdcda5d141bdbdb607a1b601082015260210190565b60006020828403121561141c57600080fd5b815161136581611333565b8181038181111561039257610392611385565b6f636f6e74726163742e6164647265737360801b81526e0e4dec6d6cae8a8ded6cadca48aa89608b1b6010820152601f0190565b8082018082111561039257610392611385565b805161ffff811681146103c557600080fd5b805180151581146103c557600080fd5b600080600080600080600060e0888a0312156114be57600080fd5b87516114c981611333565b8097505060208801518060020b81146114e157600080fd5b95506114ef60408901611481565b94506114fd60608901611481565b935061150b60808901611481565b925060a088015160ff8116811461152157600080fd5b915061152f60c08901611493565b905092959891949750929550565b60006020828403121561154f57600080fd5b6113658261149356fea2646970667358221220858ce56ce0a255b4b41ed3e18909748918ff0607649481b9beaa11435eebc7f464736f6c63430008110033",
    "linkReferences": {}
  },
  "methodIdentifiers": {
    "ROCKET_STORAGE_ADDRESS()": "188e4702",
    "UNISWAP_ROUTER()": "d8264920",
    "UNI_V3_FACTORY()": "2f2eec37",
    "W_ETH_ADDRESS()": "3fe7a172",
    "balance()": "b69ef8a8",
    "deposit()": "d0e30db0",
    "ethPerDerivative(uint256)": "2bd6de1d",
    "initialize(address)": "c4d66de8",
    "maxSlippage()": "8c04166f",
    "name()": "06fdde03",
    "owner()": "8da5cb5b",
    "renounceOwnership()": "715018a6",
    "setMaxSlippage(uint256)": "43f68a49",
    "transferOwnership(address)": "f2fde38b",
    "withdraw(uint256)": "2e1a7d4d"
  },
  "id": 3
}