{
  "abi": [
    {
      "inputs": [],
      "stateMutability": "nonpayable",
      "type": "constructor"
    },
    {
      "anonymous": false,
      "inputs": [
        {
          "indexed": true,
          "internalType": "address",
          "name": "owner",
          "type": "address"
        },
        {
          "indexed": true,
          "internalType": "address",
          "name": "spender",
          "type": "address"
        },
        {
          "indexed": false,
          "internalType": "uint256",
          "name": "value",
          "type": "uint256"
        }
      ],
      "name": "Approval",
      "type": "event"
    },
    {
      "anonymous": false,
      "inputs": [
        {
          "indexed": true,
          "internalType": "uint256",
          "name": "maxAmount",
          "type": "uint256"
        }
      ],
      "name": "ChangeMaxAmount",
      "type": "event"
    },
    {
      "anonymous": false,
      "inputs": [
        {
          "indexed": true,
          "internalType": "uint256",
          "name": "minAmount",
          "type": "uint256"
        }
      ],
      "name": "ChangeMinAmount",
      "type": "event"
    },
    {
      "anonymous": false,
      "inputs": [
        {
          "indexed": true,
          "internalType": "address",
          "name": "contractAddress",
          "type": "address"
        },
        {
          "indexed": false,
          "internalType": "uint256",
          "name": "weight",
          "type": "uint256"
        },
        {
          "indexed": false,
          "internalType": "uint256",
          "name": "index",
          "type": "uint256"
        }
      ],
      "name": "DerivativeAdded",
      "type": "event"
    },
    {
      "anonymous": false,
      "inputs": [
        {
          "indexed": false,
          "internalType": "uint8",
          "name": "version",
          "type": "uint8"
        }
      ],
      "name": "Initialized",
      "type": "event"
    },
    {
      "anonymous": false,
      "inputs": [
        {
          "indexed": true,
          "internalType": "address",
          "name": "previousOwner",
          "type": "address"
        },
        {
          "indexed": true,
          "internalType": "address",
          "name": "newOwner",
          "type": "address"
        }
      ],
      "name": "OwnershipTransferred",
      "type": "event"
    },
    {
      "anonymous": false,
      "inputs": [],
      "name": "Rebalanced",
      "type": "event"
    },
    {
      "anonymous": false,
      "inputs": [
        {
          "indexed": true,
          "internalType": "uint256",
          "name": "index",
          "type": "uint256"
        },
        {
          "indexed": false,
          "internalType": "uint256",
          "name": "slippage",
          "type": "uint256"
        }
      ],
      "name": "SetMaxSlippage",
      "type": "event"
    },
    {
      "anonymous": false,
      "inputs": [
        {
          "indexed": true,
          "internalType": "address",
          "name": "recipient",
          "type": "address"
        },
        {
          "indexed": false,
          "internalType": "uint256",
          "name": "ethIn",
          "type": "uint256"
        },
        {
          "indexed": false,
          "internalType": "uint256",
          "name": "safEthOut",
          "type": "uint256"
        }
      ],
      "name": "Staked",
      "type": "event"
    },
    {
      "anonymous": false,
      "inputs": [
        {
          "indexed": true,
          "internalType": "bool",
          "name": "paused",
          "type": "bool"
        }
      ],
      "name": "StakingPaused",
      "type": "event"
    },
    {
      "anonymous": false,
      "inputs": [
        {
          "indexed": true,
          "internalType": "address",
          "name": "from",
          "type": "address"
        },
        {
          "indexed": true,
          "internalType": "address",
          "name": "to",
          "type": "address"
        },
        {
          "indexed": false,
          "internalType": "uint256",
          "name": "value",
          "type": "uint256"
        }
      ],
      "name": "Transfer",
      "type": "event"
    },
    {
      "anonymous": false,
      "inputs": [
        {
          "indexed": true,
          "internalType": "address",
          "name": "recipient",
          "type": "address"
        },
        {
          "indexed": false,
          "internalType": "uint256",
          "name": "ethOut",
          "type": "uint256"
        },
        {
          "indexed": false,
          "internalType": "uint256",
          "name": "safEthIn",
          "type": "uint256"
        }
      ],
      "name": "Unstaked",
      "type": "event"
    },
    {
      "anonymous": false,
      "inputs": [
        {
          "indexed": true,
          "internalType": "bool",
          "name": "paused",
          "type": "bool"
        }
      ],
      "name": "UnstakingPaused",
      "type": "event"
    },
    {
      "anonymous": false,
      "inputs": [
        {
          "indexed": true,
          "internalType": "uint256",
          "name": "index",
          "type": "uint256"
        },
        {
          "indexed": false,
          "internalType": "uint256",
          "name": "weight",
          "type": "uint256"
        }
      ],
      "name": "WeightChange",
      "type": "event"
    },
    {
      "inputs": [
        {
          "internalType": "address",
          "name": "_contractAddress",
          "type": "address"
        },
        {
          "internalType": "uint256",
          "name": "_weight",
          "type": "uint256"
        }
      ],
      "name": "addDerivative",
      "outputs": [],
      "stateMutability": "nonpayable",
      "type": "function"
    },
    {
      "inputs": [
        {
          "internalType": "uint256",
          "name": "_derivativeIndex",
          "type": "uint256"
        },
        {
          "internalType": "uint256",
          "name": "_weight",
          "type": "uint256"
        }
      ],
      "name": "adjustWeight",
      "outputs": [],
      "stateMutability": "nonpayable",
      "type": "function"
    },
    {
      "inputs": [
        {
          "internalType": "address",
          "name": "owner",
          "type": "address"
        },
        {
          "internalType": "address",
          "name": "spender",
          "type": "address"
        }
      ],
      "name": "allowance",
      "outputs": [
        {
          "internalType": "uint256",
          "name": "",
          "type": "uint256"
        }
      ],
      "stateMutability": "view",
      "type": "function"
    },
    {
      "inputs": [
        {
          "internalType": "address",
          "name": "spender",
          "type": "address"
        },
        {
          "internalType": "uint256",
          "name": "amount",
          "type": "uint256"
        }
      ],
      "name": "approve",
      "outputs": [
        {
          "internalType": "bool",
          "name": "",
          "type": "bool"
        }
      ],
      "stateMutability": "nonpayable",
      "type": "function"
    },
    {
      "inputs": [
        {
          "internalType": "address",
          "name": "account",
          "type": "address"
        }
      ],
      "name": "balanceOf",
      "outputs": [
        {
          "internalType": "uint256",
          "name": "",
          "type": "uint256"
        }
      ],
      "stateMutability": "view",
      "type": "function"
    },
    {
      "inputs": [],
      "name": "decimals",
      "outputs": [
        {
          "internalType": "uint8",
          "name": "",
          "type": "uint8"
        }
      ],
      "stateMutability": "view",
      "type": "function"
    },
    {
      "inputs": [
        {
          "internalType": "address",
          "name": "spender",
          "type": "address"
        },
        {
          "internalType": "uint256",
          "name": "subtractedValue",
          "type": "uint256"
        }
      ],
      "name": "decreaseAllowance",
      "outputs": [
        {
          "internalType": "bool",
          "name": "",
          "type": "bool"
        }
      ],
      "stateMutability": "nonpayable",
      "type": "function"
    },
    {
      "inputs": [],
      "name": "derivativeCount",
      "outputs": [
        {
          "internalType": "uint256",
          "name": "",
          "type": "uint256"
        }
      ],
      "stateMutability": "view",
      "type": "function"
    },
    {
      "inputs": [
        {
          "internalType": "uint256",
          "name": "",
          "type": "uint256"
        }
      ],
      "name": "derivatives",
      "outputs": [
        {
          "internalType": "contract IDerivative",
          "name": "",
          "type": "address"
        }
      ],
      "stateMutability": "view",
      "type": "function"
    },
    {
      "inputs": [
        {
          "internalType": "address",
          "name": "spender",
          "type": "address"
        },
        {
          "internalType": "uint256",
          "name": "addedValue",
          "type": "uint256"
        }
      ],
      "name": "increaseAllowance",
      "outputs": [
        {
          "internalType": "bool",
          "name": "",
          "type": "bool"
        }
      ],
      "stateMutability": "nonpayable",
      "type": "function"
    },
    {
      "inputs": [
        {
          "internalType": "string",
          "name": "_tokenName",
          "type": "string"
        },
        {
          "internalType": "string",
          "name": "_tokenSymbol",
          "type": "string"
        }
      ],
      "name": "initialize",
      "outputs": [],
      "stateMutability": "nonpayable",
      "type": "function"
    },
    {
      "inputs": [],
      "name": "maxAmount",
      "outputs": [
        {
          "internalType": "uint256",
          "name": "",
          "type": "uint256"
        }
      ],
      "stateMutability": "view",
      "type": "function"
    },
    {
      "inputs": [],
      "name": "minAmount",
      "outputs": [
        {
          "internalType": "uint256",
          "name": "",
          "type": "uint256"
        }
      ],
      "stateMutability": "view",
      "type": "function"
    },
    {
      "inputs": [],
      "name": "name",
      "outputs": [
        {
          "internalType": "string",
          "name": "",
          "type": "string"
        }
      ],
      "stateMutability": "view",
      "type": "function"
    },
    {
      "inputs": [],
      "name": "owner",
      "outputs": [
        {
          "internalType": "address",
          "name": "",
          "type": "address"
        }
      ],
      "stateMutability": "view",
      "type": "function"
    },
    {
      "inputs": [],
      "name": "pauseStaking",
      "outputs": [
        {
          "internalType": "bool",
          "name": "",
          "type": "bool"
        }
      ],
      "stateMutability": "view",
      "type": "function"
    },
    {
      "inputs": [],
      "name": "pauseUnstaking",
      "outputs": [
        {
          "internalType": "bool",
          "name": "",
          "type": "bool"
        }
      ],
      "stateMutability": "view",
      "type": "function"
    },
    {
      "inputs": [],
      "name": "rebalanceToWeights",
      "outputs": [],
      "stateMutability": "nonpayable",
      "type": "function"
    },
    {
      "inputs": [],
      "name": "renounceOwnership",
      "outputs": [],
      "stateMutability": "nonpayable",
      "type": "function"
    },
    {
      "inputs": [
        {
          "internalType": "uint256",
          "name": "_maxAmount",
          "type": "uint256"
        }
      ],
      "name": "setMaxAmount",
      "outputs": [],
      "stateMutability": "nonpayable",
      "type": "function"
    },
    {
      "inputs": [
        {
          "internalType": "uint256",
          "name": "_derivativeIndex",
          "type": "uint256"
        },
        {
          "internalType": "uint256",
          "name": "_slippage",
          "type": "uint256"
        }
      ],
      "name": "setMaxSlippage",
      "outputs": [],
      "stateMutability": "nonpayable",
      "type": "function"
    },
    {
      "inputs": [
        {
          "internalType": "uint256",
          "name": "_minAmount",
          "type": "uint256"
        }
      ],
      "name": "setMinAmount",
      "outputs": [],
      "stateMutability": "nonpayable",
      "type": "function"
    },
    {
      "inputs": [
        {
          "internalType": "bool",
          "name": "_pause",
          "type": "bool"
        }
      ],
      "name": "setPauseStaking",
      "outputs": [],
      "stateMutability": "nonpayable",
      "type": "function"
    },
    {
      "inputs": [
        {
          "internalType": "bool",
          "name": "_pause",
          "type": "bool"
        }
      ],
      "name": "setPauseUnstaking",
      "outputs": [],
      "stateMutability": "nonpayable",
      "type": "function"
    },
    {
      "inputs": [],
      "name": "stake",
      "outputs": [],
      "stateMutability": "payable",
      "type": "function"
    },
    {
      "inputs": [],
      "name": "symbol",
      "outputs": [
        {
          "internalType": "string",
          "name": "",
          "type": "string"
        }
      ],
      "stateMutability": "view",
      "type": "function"
    },
    {
      "inputs": [],
      "name": "totalSupply",
      "outputs": [
        {
          "internalType": "uint256",
          "name": "",
          "type": "uint256"
        }
      ],
      "stateMutability": "view",
      "type": "function"
    },
    {
      "inputs": [],
      "name": "totalWeight",
      "outputs": [
        {
          "internalType": "uint256",
          "name": "",
          "type": "uint256"
        }
      ],
      "stateMutability": "view",
      "type": "function"
    },
    {
      "inputs": [
        {
          "internalType": "address",
          "name": "to",
          "type": "address"
        },
        {
          "internalType": "uint256",
          "name": "amount",
          "type": "uint256"
        }
      ],
      "name": "transfer",
      "outputs": [
        {
          "internalType": "bool",
          "name": "",
          "type": "bool"
        }
      ],
      "stateMutability": "nonpayable",
      "type": "function"
    },
    {
      "inputs": [
        {
          "internalType": "address",
          "name": "from",
          "type": "address"
        },
        {
          "internalType": "address",
          "name": "to",
          "type": "address"
        },
        {
          "internalType": "uint256",
          "name": "amount",
          "type": "uint256"
        }
      ],
      "name": "transferFrom",
      "outputs": [
        {
          "internalType": "bool",
          "name": "",
          "type": "bool"
        }
      ],
      "stateMutability": "nonpayable",
      "type": "function"
    },
    {
      "inputs": [
        {
          "internalType": "address",
          "name": "newOwner",
          "type": "address"
        }
      ],
      "name": "transferOwnership",
      "outputs": [],
      "stateMutability": "nonpayable",
      "type": "function"
    },
    {
      "inputs": [
        {
          "internalType": "uint256",
          "name": "_safEthAmount",
          "type": "uint256"
        }
      ],
      "name": "unstake",
      "outputs": [],
      "stateMutability": "nonpayable",
      "type": "function"
    },
    {
      "inputs": [
        {
          "internalType": "uint256",
          "name": "",
          "type": "uint256"
        }
      ],
      "name": "weights",
      "outputs": [
        {
          "internalType": "uint256",
          "name": "",
          "type": "uint256"
        }
      ],
      "stateMutability": "view",
      "type": "function"
    },
    {
      "stateMutability": "payable",
      "type": "receive"
    }
  ],
  "bytecode": {
    "object": "0x608060405234801561001057600080fd5b5061001961001e565b6100de565b600054610100900460ff161561008a5760405162461bcd60e51b815260206004820152602760248201527f496e697469616c697a61626c653a20636f6e747261637420697320696e697469604482015266616c697a696e6760c81b606482015260840160405180910390fd5b60005460ff90811610156100dc576000805460ff191660ff9081179091556040519081527f7f26b83ff96e1f2b6a682f133852f6798a09c465da95921460cefb38474024989060200160405180910390a15b565b6121d780620000ee6000396000f3fe6080604052600436106101f25760003560e01c8063897b06371161010d578063b5f163ff116100a0578063d416c0961161006f578063d416c0961461058a578063d5b7f6061461059f578063dd62ed3e146105bf578063f2fde38b146105df578063f999c506146105ff57600080fd5b8063b5f163ff146104f1578063b9c849b61461051e578063c0046e391461053e578063cde8f8511461057457600080fd5b80639b2cb5d8116100dc5780639b2cb5d81461047b578063a457c2d714610491578063a57e3b10146104b1578063a9059cbb146104d157600080fd5b8063897b0637146103fe5780638da5cb5b1461041e57806395d89b411461045057806396c82e571461046557600080fd5b80633a4b66f1116101855780635f48f393116101545780635f48f3931461037d5780636d49e0b61461039357806370a08231146103b3578063715018a6146103e957600080fd5b80633a4b66f1146103155780634cd88b761461031d5780634fe47f701461033d5780635e7cc5831461035d57600080fd5b806323b872dd116101c157806323b872dd146102975780632e17de78146102b7578063313ce567146102d957806339509351146102f557600080fd5b806306fdde03146101fe578063095ea7b31461022957806318160ddd146102595780631c4e6ab71461027857600080fd5b366101f957005b600080fd5b34801561020a57600080fd5b50610213610619565b6040516102209190611cde565b60405180910390f35b34801561023557600080fd5b50610249610244366004611d48565b6106ab565b6040519015158152602001610220565b34801561026557600080fd5b506035545b604051908152602001610220565b34801561028457600080fd5b5060975461024990610100900460ff1681565b3480156102a357600080fd5b506102496102b2366004611d72565b6106c5565b3480156102c357600080fd5b506102d76102d2366004611dae565b6106e9565b005b3480156102e557600080fd5b5060405160128152602001610220565b34801561030157600080fd5b50610249610310366004611d48565b610961565b6102d7610983565b34801561032957600080fd5b506102d7610338366004611e6a565b610e24565b34801561034957600080fd5b506102d7610358366004611dae565b610f5b565b34801561036957600080fd5b506102d7610378366004611ece565b610f96565b34801561038957600080fd5b5061026a609b5481565b34801561039f57600080fd5b506102d76103ae366004611ef0565b611047565b3480156103bf57600080fd5b5061026a6103ce366004611f19565b6001600160a01b031660009081526033602052604090205490565b3480156103f557600080fd5b506102d7611094565b34801561040a57600080fd5b506102d7610419366004611dae565b6110a8565b34801561042a57600080fd5b506065546001600160a01b03165b6040516001600160a01b039091168152602001610220565b34801561045c57600080fd5b506102136110e3565b34801561047157600080fd5b5061026a60995481565b34801561048757600080fd5b5061026a609a5481565b34801561049d57600080fd5b506102496104ac366004611d48565b6110f2565b3480156104bd57600080fd5b506102d76104cc366004611d48565b61116d565b3480156104dd57600080fd5b506102496104ec366004611d48565b611256565b3480156104fd57600080fd5b5061026a61050c366004611dae565b609d6020526000908152604090205481565b34801561052a57600080fd5b506102d7610539366004611ece565b611264565b34801561054a57600080fd5b50610438610559366004611dae565b609c602052600090815260409020546001600160a01b031681565b34801561058057600080fd5b5061026a60985481565b34801561059657600080fd5b506102d76112ee565b3480156105ab57600080fd5b506102d76105ba366004611ef0565b611587565b3480156105cb57600080fd5b5061026a6105da366004611f34565b6115de565b3480156105eb57600080fd5b506102d76105fa366004611f19565b611609565b34801561060b57600080fd5b506097546102499060ff1681565b60606036805461062890611f67565b80601f016020809104026020016040519081016040528092919081815260200182805461065490611f67565b80156106a15780601f10610676576101008083540402835291602001916106a1565b820191906000526020600020905b81548152906001019060200180831161068457829003601f168201915b5050505050905090565b6000336106b9818585611682565b60019150505b92915050565b6000336106d38582856117a6565b6106de858585611820565b506001949350505050565b609754610100900460ff161561073c5760405162461bcd60e51b81526020600482015260136024820152721d5b9cdd185ada5b99c81a5cc81c185d5cd959606a1b60448201526064015b60405180910390fd5b600061074760355490565b90504760005b609854811015610874576000818152609c602090815260408083205481516316d3df1560e31b81529151879389936001600160a01b039093169263b69ef8a892600480830193928290030181865afa1580156107ad573d6000803e3d6000fd5b505050506040513d601f19601f820116820180604052508101906107d19190611fa1565b6107db9190611fd0565b6107e59190611fe7565b9050806000036107f55750610862565b6000828152609c602052604090819020549051632e1a7d4d60e01b8152600481018390526001600160a01b0390911690632e1a7d4d90602401600060405180830381600087803b15801561084857600080fd5b505af115801561085c573d6000803e3d6000fd5b50505050505b8061086c81612009565b91505061074d565b5061087f33846119cb565b47600061088c8383612022565b604051909150600090339083908381818185875af1925050503d80600081146108d1576040519150601f19603f3d011682016040523d82523d6000602084013e6108d6565b606091505b505090508061091e5760405162461bcd60e51b81526020600482015260146024820152732330b4b632b2103a379039b2b7321022ba3432b960611b6044820152606401610733565b604080518381526020810188905233917f7fc4727e062e336010f2c282598ef5f14facb3de68cf8195c2f23e1454b2b74e910160405180910390a2505050505050565b6000336106b981858561097483836115de565b61097e9190612035565b611682565b60975460ff16156109ca5760405162461bcd60e51b81526020600482015260116024820152701cdd185ada5b99c81a5cc81c185d5cd959607a1b6044820152606401610733565b609a54341015610a0d5760405162461bcd60e51b815260206004820152600e60248201526d616d6f756e7420746f6f206c6f7760901b6044820152606401610733565b609b54341115610a515760405162461bcd60e51b815260206004820152600f60248201526e0c2dadeeadce840e8dede40d0d2ced608b1b6044820152606401610733565b6000805b609854811015610bf1576000818152609c60209081526040918290205482516316d3df1560e31b81529251670de0b6b3a7640000936001600160a01b039092169263b69ef8a892600480820193918290030181865afa158015610abc573d6000803e3d6000fd5b505050506040513d601f19601f82011682018060405250810190610ae09190611fa1565b6000838152609c60209081526040918290205482516316d3df1560e31b815292516001600160a01b0390911692632bd6de1d92849263b69ef8a89260048082019392918290030181865afa158015610b3c573d6000803e3d6000fd5b505050506040513d601f19601f82011682018060405250810190610b609190611fa1565b6040518263ffffffff1660e01b8152600401610b7e91815260200190565b602060405180830381865afa158015610b9b573d6000803e3d6000fd5b505050506040513d601f19601f82011682018060405250810190610bbf9190611fa1565b610bc99190611fd0565b610bd39190611fe7565b610bdd9083612035565b915080610be981612009565b915050610a55565b506000610bfd60355490565b9050600081600003610c185750670de0b6b3a7640000610c38565b81610c2b84670de0b6b3a7640000611fd0565b610c359190611fe7565b90505b6000805b609854811015610db6576000818152609d6020908152604080832054609c90925282205490916001600160a01b0390911690829003610c7c575050610da4565b609954600090610c8c8434611fd0565b610c969190611fe7565b90506000826001600160a01b031663d0e30db0836040518263ffffffff1660e01b815260040160206040518083038185885af1158015610cda573d6000803e3d6000fd5b50505050506040513d601f19601f82011682018060405250810190610cff9190611fa1565b90506000670de0b6b3a764000082856001600160a01b0316632bd6de1d856040518263ffffffff1660e01b8152600401610d3b91815260200190565b602060405180830381865afa158015610d58573d6000803e3d6000fd5b505050506040513d601f19601f82011682018060405250810190610d7c9190611fa1565b610d869190611fd0565b610d909190611fe7565b9050610d9c8188612035565b965050505050505b80610dae81612009565b915050610c3c565b50600082610dcc83670de0b6b3a7640000611fd0565b610dd69190611fe7565b9050610de23382611aff565b604080513481526020810183905233917f1449c6dd7851abc30abf37f57715f492010519147cc2652fbc38202c18a6ee90910160405180910390a25050505050565b600054610100900460ff1615808015610e445750600054600160ff909116105b80610e5e5750303b158015610e5e575060005460ff166001145b610ec15760405162461bcd60e51b815260206004820152602e60248201527f496e697469616c697a61626c653a20636f6e747261637420697320616c72656160448201526d191e481a5b9a5d1a585b1a5e995960921b6064820152608401610733565b6000805460ff191660011790558015610ee4576000805461ff0019166101001790555b610eee8383611bc1565b610ef733611bf2565b6706f05b59d3b20000609a55680ad78ebc5ac6200000609b558015610f56576000805461ff0019169055604051600181527f7f26b83ff96e1f2b6a682f133852f6798a09c465da95921460cefb38474024989060200160405180910390a15b505050565b610f63611c44565b609b81905560405181907f13cad1d1f9bc3464ddf35ddde5e0389a9edf9639f97e2fccb7e59fdeb5dcad2290600090a250565b610f9e611c44565b6000828152609c6020526040908190205490516343f68a4960e01b8152600481018390526001600160a01b03909116906343f68a4990602401600060405180830381600087803b158015610ff157600080fd5b505af1158015611005573d6000803e3d6000fd5b50505050817f69bd9725c402dd1e5e9d8a2323132cb3943d9dc10cb4747a89e05cda452bfe9f8260405161103b91815260200190565b60405180910390a25050565b61104f611c44565b6097805460ff191682151590811790915560405160ff9091161515907f3cf4fe733160f8f8c48336fab32acee32ebaaa423a08a2be4e5ceff97dd98c6990600090a250565b61109c611c44565b6110a66000611bf2565b565b6110b0611c44565b609a81905560405181907fbb1711a6693c8a2dfb14b13f0a1468cb1042b91bfe4e3a4b3e3d280aa255ece290600090a250565b60606037805461062890611f67565b6000338161110082866115de565b9050838110156111605760405162461bcd60e51b815260206004820152602560248201527f45524332303a2064656372656173656420616c6c6f77616e63652062656c6f77604482015264207a65726f60d81b6064820152608401610733565b6106de8286868403611682565b611175611c44565b609880546000908152609c6020908152604080832080546001600160a01b0319166001600160a01b03881617905583548352609d9091528120839055815491906111be83612009565b91905055506000805b6098548110156111fe576000818152609d60205260409020546111ea9083612035565b9150806111f681612009565b9150506111c7565b5060998190556098546040516001600160a01b038516917f7801a492c794d930101c8993235226b79be1216f9855e30c0615d22fdd22bb449161124991868252602082015260400190565b60405180910390a2505050565b6000336106b9818585611820565b61126c611c44565b6000828152609d60205260408120829055805b6098548110156112b6576000818152609d60205260409020546112a29083612035565b9150806112ae81612009565b91505061127f565b50609981905560405182815283907faf36c6f4d67b41fb74b801bfd0a1f6e579c68ff0cc464663a49f3c6112d9b93d90602001611249565b6112f6611c44565b4760005b609854811015611463576000818152609c602090815260408083205481516316d3df1560e31b815291516001600160a01b039091169263b69ef8a892600480820193918290030181865afa158015611356573d6000803e3d6000fd5b505050506040513d601f19601f8201168201806040525081019061137a9190611fa1565b1115611451576000818152609c60209081526040918290205482516316d3df1560e31b815292516001600160a01b0390911692632e1a7d4d92849263b69ef8a89260048082019392918290030181865afa1580156113dc573d6000803e3d6000fd5b505050506040513d601f19601f820116820180604052508101906114009190611fa1565b6040518263ffffffff1660e01b815260040161141e91815260200190565b600060405180830381600087803b15801561143857600080fd5b505af115801561144c573d6000803e3d6000fd5b505050505b8061145b81612009565b9150506112fa565b504760006114718383612022565b905060005b609854811015611558576000818152609d60205260409020541580611499575081155b611546576099546000828152609d60205260408120549091906114bc9085611fd0565b6114c69190611fe7565b6000838152609c6020908152604091829020548251630d0e30db60e41b815292519394506001600160a01b03169263d0e30db09285926004808301939192829003018185885af115801561151e573d6000803e3d6000fd5b50505050506040513d601f19601f820116820180604052508101906115439190611fa1565b50505b8061155081612009565b915050611476565b506040517fc741dbaad15a4f298fe8d80943fa8e005e7bcb2f5b0a0c8dec1fc35be457f14690600090a1505050565b61158f611c44565b6097805461ff0019166101008315158102919091179182905560405160ff91909204161515907f0c7f3357f9df485f4d8a04f45e87783b560f907fc7d2f72b4377ca33aa49308e90600090a250565b6001600160a01b03918216600090815260346020908152604080832093909416825291909152205490565b611611611c44565b6001600160a01b0381166116765760405162461bcd60e51b815260206004820152602660248201527f4f776e61626c653a206e6577206f776e657220697320746865207a65726f206160448201526564647265737360d01b6064820152608401610733565b61167f81611bf2565b50565b6001600160a01b0383166116e45760405162461bcd60e51b8152602060048201526024808201527f45524332303a20617070726f76652066726f6d20746865207a65726f206164646044820152637265737360e01b6064820152608401610733565b6001600160a01b0382166117455760405162461bcd60e51b815260206004820152602260248201527f45524332303a20617070726f766520746f20746865207a65726f206164647265604482015261737360f01b6064820152608401610733565b6001600160a01b0383811660008181526034602090815260408083209487168084529482529182902085905590518481527f8c5be1e5ebec7d5bd14f71427d1e84f3dd0314c0f7b2291e5b200ac8c7c3b925910160405180910390a3505050565b60006117b284846115de565b9050600019811461181a578181101561180d5760405162461bcd60e51b815260206004820152601d60248201527f45524332303a20696e73756666696369656e7420616c6c6f77616e63650000006044820152606401610733565b61181a8484848403611682565b50505050565b6001600160a01b0383166118845760405162461bcd60e51b815260206004820152602560248201527f45524332303a207472616e736665722066726f6d20746865207a65726f206164604482015264647265737360d81b6064820152608401610733565b6001600160a01b0382166118e65760405162461bcd60e51b815260206004820152602360248201527f45524332303a207472616e7366657220746f20746865207a65726f206164647260448201526265737360e81b6064820152608401610733565b6001600160a01b0383166000908152603360205260409020548181101561195e5760405162461bcd60e51b815260206004820152602660248201527f45524332303a207472616e7366657220616d6f756e7420657863656564732062604482015265616c616e636560d01b6064820152608401610733565b6001600160a01b0380851660008181526033602052604080822086860390559286168082529083902080548601905591517fddf252ad1be2c89b69c2b068fc378daa952ba7f163c4a11628f55a4df523b3ef906119be9086815260200190565b60405180910390a361181a565b6001600160a01b038216611a2b5760405162461bcd60e51b815260206004820152602160248201527f45524332303a206275726e2066726f6d20746865207a65726f206164647265736044820152607360f81b6064820152608401610733565b6001600160a01b03821660009081526033602052604090205481811015611a9f5760405162461bcd60e51b815260206004820152602260248201527f45524332303a206275726e20616d6f756e7420657863656564732062616c616e604482015261636560f01b6064820152608401610733565b6001600160a01b03831660008181526033602090815260408083208686039055603580548790039055518581529192917fddf252ad1be2c89b69c2b068fc378daa952ba7f163c4a11628f55a4df523b3ef910160405180910390a3505050565b6001600160a01b038216611b555760405162461bcd60e51b815260206004820152601f60248201527f45524332303a206d696e7420746f20746865207a65726f2061646472657373006044820152606401610733565b8060356000828254611b679190612035565b90915550506001600160a01b0382166000818152603360209081526040808320805486019055518481527fddf252ad1be2c89b69c2b068fc378daa952ba7f163c4a11628f55a4df523b3ef910160405180910390a35b5050565b600054610100900460ff16611be85760405162461bcd60e51b815260040161073390612048565b611bbd8282611c9e565b606580546001600160a01b038381166001600160a01b0319831681179093556040519116919082907f8be0079c531659141344cd1fd0a4f28419497f9722a3daafe3b4186f6b6457e090600090a35050565b6065546001600160a01b031633146110a65760405162461bcd60e51b815260206004820181905260248201527f4f776e61626c653a2063616c6c6572206973206e6f7420746865206f776e65726044820152606401610733565b600054610100900460ff16611cc55760405162461bcd60e51b815260040161073390612048565b6036611cd183826120e1565b506037610f5682826120e1565b600060208083528351808285015260005b81811015611d0b57858101830151858201604001528201611cef565b506000604082860101526040601f19601f8301168501019250505092915050565b80356001600160a01b0381168114611d4357600080fd5b919050565b60008060408385031215611d5b57600080fd5b611d6483611d2c565b946020939093013593505050565b600080600060608486031215611d8757600080fd5b611d9084611d2c565b9250611d9e60208501611d2c565b9150604084013590509250925092565b600060208284031215611dc057600080fd5b5035919050565b634e487b7160e01b600052604160045260246000fd5b600082601f830112611dee57600080fd5b813567ffffffffffffffff80821115611e0957611e09611dc7565b604051601f8301601f19908116603f01168101908282118183101715611e3157611e31611dc7565b81604052838152866020858801011115611e4a57600080fd5b836020870160208301376000602085830101528094505050505092915050565b60008060408385031215611e7d57600080fd5b823567ffffffffffffffff80821115611e9557600080fd5b611ea186838701611ddd565b93506020850135915080821115611eb757600080fd5b50611ec485828601611ddd565b9150509250929050565b60008060408385031215611ee157600080fd5b50508035926020909101359150565b600060208284031215611f0257600080fd5b81358015158114611f1257600080fd5b9392505050565b600060208284031215611f2b57600080fd5b611f1282611d2c565b60008060408385031215611f4757600080fd5b611f5083611d2c565b9150611f5e60208401611d2c565b90509250929050565b600181811c90821680611f7b57607f821691505b602082108103611f9b57634e487b7160e01b600052602260045260246000fd5b50919050565b600060208284031215611fb357600080fd5b5051919050565b634e487b7160e01b600052601160045260246000fd5b80820281158282048414176106bf576106bf611fba565b60008261200457634e487b7160e01b600052601260045260246000fd5b500490565b60006001820161201b5761201b611fba565b5060010190565b818103818111156106bf576106bf611fba565b808201808211156106bf576106bf611fba565b6020808252602b908201527f496e697469616c697a61626c653a20636f6e7472616374206973206e6f74206960408201526a6e697469616c697a696e6760a81b606082015260800190565b601f821115610f5657600081815260208120601f850160051c810160208610156120ba5750805b601f850160051c820191505b818110156120d9578281556001016120c6565b505050505050565b815167ffffffffffffffff8111156120fb576120fb611dc7565b61210f816121098454611f67565b84612093565b602080601f831160018114612144576000841561212c5750858301515b600019600386901b1c1916600185901b1785556120d9565b600085815260208120601f198616915b8281101561217357888601518255948401946001909101908401612154565b50858210156121915787850151600019600388901b60f8161c191681555b5050505050600190811b0190555056fea26469706673582212204e847f013270e01d0905eae175678e101aa7342e0b32967f06181fb6d969998764736f6c63430008110033",
    "linkReferences": {}
  },
  "methodIdentifiers": {
    "addDerivative(address,uint256)": "a57e3b10",
    "adjustWeight(uint256,uint256)": "b9c849b6",
    "allowance(address,address)": "dd62ed3e",
    "approve(address,uint256)": "095ea7b3",
    "balanceOf(address)": "70a08231",
    "decimals()": "313ce567",
    "decreaseAllowance(address,uint256)": "a457c2d7",
    "derivativeCount()": "cde8f851",
    "derivatives(uint256)": "c0046e39",
    "increaseAllowance(address,uint256)": "39509351",
    "initialize(string,string)": "4cd88b76",
    "maxAmount()": "5f48f393",
    "minAmount()": "9b2cb5d8",
    "name()": "06fdde03",
    "owner()": "8da5cb5b",
    "pauseStaking()": "f999c506",
    "pauseUnstaking()": "1c4e6ab7",
    "rebalanceToWeights()": "d416c096",
    "renounceOwnership()": "715018a6",
    "setMaxAmount(uint256)": "4fe47f70",
    "setMaxSlippage(uint256,uint256)": "5e7cc583",
    "setMinAmount(uint256)": "897b0637",
    "setPauseStaking(bool)": "6d49e0b6",
    "setPauseUnstaking(bool)": "d5b7f606",
    "stake()": "3a4b66f1",
    "symbol()": "95d89b41",
    "totalSupply()": "18160ddd",
    "totalWeight()": "96c82e57",
    "transfer(address,uint256)": "a9059cbb",
    "transferFrom(address,address,uint256)": "23b872dd",
    "transferOwnership(address)": "f2fde38b",
    "unstake(uint256)": "2e17de78",
    "weights(uint256)": "b5f163ff"
  },
  "id": 1
}