{
  "abi": [
    {
      "inputs": [],
      "name": "derivativeCount",
      "outputs": [
        {
          "internalType": "uint256",
          "name": "",
          "type": "uint256"
        }
      ],
      "stateMutability": "view",
      "type": "function"
    },
    {
      "inputs": [
        {
          "internalType": "uint256",
          "name": "",
          "type": "uint256"
        }
      ],
      "name": "derivatives",
      "outputs": [
        {
          "internalType": "contract IDerivative",
          "name": "",
          "type": "address"
        }
      ],
      "stateMutability": "view",
      "type": "function"
    },
    {
      "inputs": [],
      "name": "maxAmount",
      "outputs": [
        {
          "internalType": "uint256",
          "name": "",
          "type": "uint256"
        }
      ],
      "stateMutability": "view",
      "type": "function"
    },
    {
      "inputs": [],
      "name": "minAmount",
      "outputs": [
        {
          "internalType": "uint256",
          "name": "",
          "type": "uint256"
        }
      ],
      "stateMutability": "view",
      "type": "function"
    },
    {
      "inputs": [],
      "name": "pauseStaking",
      "outputs": [
        {
          "internalType": "bool",
          "name": "",
          "type": "bool"
        }
      ],
      "stateMutability": "view",
      "type": "function"
    },
    {
      "inputs": [],
      "name": "pauseUnstaking",
      "outputs": [
        {
          "internalType": "bool",
          "name": "",
          "type": "bool"
        }
      ],
      "stateMutability": "view",
      "type": "function"
    },
    {
      "inputs": [],
      "name": "totalWeight",
      "outputs": [
        {
          "internalType": "uint256",
          "name": "",
          "type": "uint256"
        }
      ],
      "stateMutability": "view",
      "type": "function"
    },
    {
      "inputs": [
        {
          "internalType": "uint256",
          "name": "",
          "type": "uint256"
        }
      ],
      "name": "weights",
      "outputs": [
        {
          "internalType": "uint256",
          "name": "",
          "type": "uint256"
        }
      ],
      "stateMutability": "view",
      "type": "function"
    }
  ],
  "bytecode": {
    "object": "0x608060405234801561001057600080fd5b506101a3806100206000396000f3fe608060405234801561001057600080fd5b50600436106100885760003560e01c8063b5f163ff1161005b578063b5f163ff146100dd578063c0046e39146100fd578063cde8f8511461013e578063f999c5061461014757600080fd5b80631c4e6ab71461008d5780635f48f393146100b457806396c82e57146100cb5780639b2cb5d8146100d4575b600080fd5b60005461009f90610100900460ff1681565b60405190151581526020015b60405180910390f35b6100bd60045481565b6040519081526020016100ab565b6100bd60025481565b6100bd60035481565b6100bd6100eb366004610154565b60066020526000908152604090205481565b61012661010b366004610154565b6005602052600090815260409020546001600160a01b031681565b6040516001600160a01b0390911681526020016100ab565b6100bd60015481565b60005461009f9060ff1681565b60006020828403121561016657600080fd5b503591905056fea2646970667358221220b90c24f6c32524628cce869d17287dd9a094ac431130d1d424faf19d5a5a3cee64736f6c63430008110033",
    "linkReferences": {}
  },
  "methodIdentifiers": {
    "derivativeCount()": "cde8f851",
    "derivatives(uint256)": "c0046e39",
    "maxAmount()": "5f48f393",
    "minAmount()": "9b2cb5d8",
    "pauseStaking()": "f999c506",
    "pauseUnstaking()": "1c4e6ab7",
    "totalWeight()": "96c82e57",
    "weights(uint256)": "b5f163ff"
  },
  "id": 2
}